:100000000C9462000C948A000C948A000C948A0070
:100010000C948A000C948A000C948A000C948A0038
:100020000C948A000C948A000C948A000C948A0028
:100030000C948A000C948A000C948A000C948A0018
:100040000C940D020C948A000C947D020C945702BF
:100050000C948A000C948A000C948A000C948A00F8
:100060000C948A000C948A000000000024002700F1
:100070002A000000000023002600290000000000E4
:10008000250028002B0004040404040404040202D4
:100090000202020203030303030301020408102007
:1000A0004080010204081020010204081020000012
:1000B0000008000201000003040700000000000027
:1000C0000000B50311241FBECFEFD8E0DEBFCDBFC7
:1000D00011E0A0E0B1E0E4EDF7E002C005900D9280
:1000E000A433B107D9F721E0A4E3B1E001C01D9228
:1000F000AC3DB207E1F710E0C2E6D0E004C02197C2
:10010000FE010E94E203C136D107C9F70E94AF0287
:100110000C94E8030C940000833081F028F48130C3
:1001200099F08230A9F008958730A9F08830C9F09D
:100130008430B1F4809180008F7D03C08091800075
:100140008F7780938000089584B58F7784BD08955C
:1001500084B58F7DFBCF8091B0008F778093B00006
:1001600008958091B0008F7DF9CF1F93CF93DF93D7
:10017000282F30E0F901E255FF4F8491F901E6564E
:10018000FF4FD491F901EA57FF4FC491CC23A9F056
:10019000162F81110E948C00EC2FF0E0EE0FFF1F54
:1001A000E458FF4FA591B4918FB7F894EC911111D9
:1001B00008C0D095DE23DC938FBFDF91CF911F91D4
:1001C0000895DE2BF8CFAF92BF92CF92DF92EF92DD
:1001D000FF920F931F93CF93DF936C017B018B01F1
:1001E000040F151FEB015E01AE18BF08C017D10741
:1001F00059F06991D601ED91FC910190F081E02DCB
:10020000C6010995892B79F7C501DF91CF911F911F
:100210000F91FF90EF90DF90CF90BF90AF90089537
:10022000FC01538D448D252F30E0842F90E0821BFC
:10023000930B541710F0CF96089501970895FC0181
:10024000918D828D981761F0A28DAE0FBF2FB11DD9
:100250005D968C91928D9F5F9F73928F90E0089531
:100260008FEF9FEF0895FC01918D828D981731F0EB
:10027000828DE80FF11D858D90E008958FEF9FEF3F
:100280000895FC01918D228D892F90E0805C9F4F15
:10029000821B91098F73992708958FE391E00E9443
:1002A000410121E0892B09F420E0822F089580E0AC
:1002B00090E0892B29F00E944D0181110C940000DF
:1002C0000895FC01A48DA80FB92FB11DA35ABF4FEB
:1002D0002C91848D90E001968F739927848FA68945
:1002E000B7892C93A089B1898C91837080648C9399
:1002F000938D848D981306C00288F389E02D808148
:100300008F7D80830895EF92FF920F931F93CF9379
:10031000DF93EC0181E0888F9B8D8C8D98131AC040
:10032000E889F989808185FF15C09FB7F894EE8927
:10033000FF896083E889F989808183708064808384
:100340009FBF81E090E0DF91CF911F910F91FF90CF
:10035000EF900895F62E0B8D10E00F5F1F4F0F7377
:100360001127E02E8C8D8E110CC00FB607FCFACF32
:10037000E889F989808185FFF5CFCE010E9461016E
:10038000F1CFEB8DEC0FFD2FF11DE35AFF4FF08203
:100390009FB7F8940B8FEA89FB8980818062CFCF69
:1003A000CF93DF93EC01888D8823B9F0AA89BB89AC
:1003B000E889F9898C9185FD03C0808186FD0DC097
:1003C0000FB607FCF7CF8C9185FFF2CF808185FFB8
:1003D000EDCFCE010E946101E9CFDF91CF91089569
:1003E000CF93DF93FC0101900020E9F73197AF0133
:1003F000481B590BBC018FE391E00E94E300EC0124
:1004000042E050E062E171E08FE391E00E94E3009E
:100410008C0F9D1FDF91CF9108951F920F920FB601
:100420000F9211242F933F938F939F93AF93BF937A
:1004300080913B0190913C01A0913D01B0913E0122
:1004400030913A0123E0230F2D3758F50196A11D75
:10045000B11D20933A0180933B0190933C01A093FE
:100460003D01B0933E018091360190913701A091FA
:100470003801B09139010196A11DB11D809336015B
:1004800090933701A0933801B0933901BF91AF9198
:100490009F918F913F912F910F900FBE0F901F90C2
:1004A000189526E8230F0296A11DB11DD2CF1F92E9
:1004B0000F920FB60F9211242F933F934F935F9398
:1004C0006F937F938F939F93AF93BF93EF93FF931C
:1004D0008FE391E00E946101FF91EF91BF91AF9195
:1004E0009F918F917F916F915F914F913F912F914C
:1004F0000F900FBE0F901F9018951F920F920FB67E
:100500000F9211242F938F939F93EF93FF93E0917A
:100510004F01F09150018081E0915501F091560119
:1005200082FD1BC09081809158018F5F8F73209155
:100530005901821741F0E0915801F0E0E15CFE4F73
:10054000958F80935801FF91EF919F918F912F91FB
:100550000F900FBE0F901F9018958081F4CF789464
:1005600084B5826084BD84B5816084BD85B58260B8
:1005700085BD85B5816085BD80916E008160809369
:100580006E001092810080918100826080938100D2
:1005900080918100816080938100809180008160E2
:1005A000809380008091B10084608093B10080913D
:1005B000B00081608093B00080917A008460809365
:1005C0007A0080917A00826080937A0080917A002C
:1005D000816080937A0080917A00806880937A00AD
:1005E0001092C100E2EAF0E02491EEE8F0E084919C
:1005F000882399F090E0880F991FFC01E859FF4F7C
:10060000A591B491FC01E458FF4F859194918FB767
:10061000F894EC91E22BEC938FBFCCE9D0E0FE0193
:10062000249108E810E0F80184918823C9F090E053
:10063000880F991FFC01E859FF4FA591B491FC0167
:10064000E458FF4F459154913FB7F8949C91822F05
:10065000809598239C93FA019081892380833FBFE2
:10066000E0914F01F091500182E08083E0914B01D5
:10067000F0914C011082E0914D01F0914E018FEC10
:10068000808310925701E0915301F091540186E06C
:100690008083E0915101F0915201808180618083DB
:1006A000E0915101F0915201808188608083E09156
:1006B0005101F0915201808180688083E091510165
:1006C000F091520180818F7D808390EBE92E90E044
:1006D000F92E20E0C22E20E0D22E88248394912C83
:1006E000F7018491FE01B490F801A490AA2051F181
:1006F00081110E948C00EA2DF0E0EE0FFF1FEE58F2
:10070000FF4FA591B4918C91B822E1F0A0903401F3
:10071000B090350161E088E00E94B500AB2841F45B
:1007200085E191E00E94F0019092350180923401C0
:10073000C114D104A9F20E944D01882389F20E94BC
:100740000000CECF60E088E00E94B50080913401C7
:1007500090913501019761F786E291E00E94F001E6
:100760001092350110923401E3CFEFE3F1E01382F0
:10077000128288EE93E0A0E0B0E084839583A683A4
:10078000B78384E091E09183808385EC90E0958746
:10079000848784EC90E09787868780EC90E0918B4B
:1007A000808B81EC90E0938B828B82EC90E0958B38
:1007B000848B86EC90E0978B868B118E128E138E35
:1007C000148E0895EE0FFF1F0590F491E02D09940B
:0407D000F894FFCFCB
:1007D400000000008301E3001001D00141011F016A
:1007E40033010D0A004D6F74696F6E206465746582
:1007F4006374656421004D6F74696F6E20656E6467
:040804006564210006
:00000001FF
